{"abi":[{"inputs":[{"internalType":"address","name":"user","type":"address"},{"internalType":"address","name":"application","type":"address"}],"name":"checkAccess","outputs":[{"internalType":"bool","name":"","type":"bool"}],"stateMutability":"view","type":"function"},{"inputs":[{"internalType":"address","name":"application","type":"address"},{"internalType":"uint256","name":"accessValidTime","type":"uint256"}],"name":"giveAccess","outputs":[],"stateMutability":"nonpayable","type":"function"},{"inputs":[{"internalType":"address","name":"","type":"address"},{"internalType":"address","name":"","type":"address"}],"name":"givenAccessUntill","outputs":[{"internalType":"uint256","name":"","type":"uint256"}],"stateMutability":"view","type":"function"},{"inputs":[{"internalType":"address","name":"user","type":"address"}],"name":"receiveAccess","outputs":[],"stateMutability":"nonpayable","type":"function"}],"bytecode":"608060405234801561001057600080fd5b506103eb806100206000396000f3fe608060405234801561001057600080fd5b506004361061004c5760003560e01c806350c05f0c1461005157806362e1f74514610066578063781eeb801461008e578063e1a5c444146100a1575b600080fd5b61006461005f366004610310565b6100d7565b005b610079610074366004610332565b61017b565b60405190151581526020015b60405180910390f35b61006461009c366004610365565b6101b9565b6100c96100af366004610332565b600060208181529281526040808220909352908152205481565b604051908152602001610085565b6001600160a01b0381166000908152602081815260408083203384529091529020544211156101585760405162461bcd60e51b815260206004820152602260248201527f61636365737320776173206e6f7420676976656e206f72206973206578706972604482015261195960f21b60648201526084015b60405180910390fd5b6001600160a01b0316600090815260208181526040808320338452909152812055565b6001600160a01b0380831660009081526020818152604080832093851683529290529081205442116101af575060016101b3565b5060005b92915050565b600181101561020a5760405162461bcd60e51b815260206004820181905260248201527f53686f7274657374206163636573732074696d652069732031207365636f6e64604482015260640161014f565b610e1081111561025c5760405162461bcd60e51b815260206004820152601d60248201527f4c6f6e67657374206163636573732074696d65206973203120686f7572000000604482015260640161014f565b336001600160a01b038316036102be5760405162461bcd60e51b815260206004820152602160248201527f596f752063616e277420676976652061636365737320746f20796f757273656c6044820152603360f91b606482015260840161014f565b6102c8814261038f565b336000908152602081815260408083206001600160a01b03969096168352949052929092209190915550565b80356001600160a01b038116811461030b57600080fd5b919050565b60006020828403121561032257600080fd5b61032b826102f4565b9392505050565b6000806040838503121561034557600080fd5b61034e836102f4565b915061035c602084016102f4565b90509250929050565b6000806040838503121561037857600080fd5b610381836102f4565b946020939093013593505050565b600082198211156103b057634e487b7160e01b600052601160045260246000fd5b50019056fea2646970667358221220ff8ba4d37498ac382a2817eed45a41a1cd35bfab25c567bb8fa58792ce4ca06b64736f6c634300080f0033","bytecodeSha1":"47dd01f600d88bdf99e5c6c69c5d7cad0c755a0a","compiler":{"evm_version":"istanbul","optimizer":{"enabled":true,"runs":200},"version":"0.8.15+commit.e14f2714"},"contractName":"PasswordlessAuthentication","language":"Solidity","natspec":{"kind":"dev","methods":{},"version":1},"opcodes":"PUSH1 0x80 PUSH1 0x40 MSTORE CALLVALUE DUP1 ISZERO PUSH2 0x10 JUMPI PUSH1 0x0 DUP1 REVERT JUMPDEST POP PUSH1 0x4 CALLDATASIZE LT PUSH2 0x4C JUMPI PUSH1 0x0 CALLDATALOAD PUSH1 0xE0 SHR DUP1 PUSH4 0x50C05F0C EQ PUSH2 0x51 JUMPI DUP1 PUSH4 0x62E1F745 EQ PUSH2 0x66 JUMPI DUP1 PUSH4 0x781EEB80 EQ PUSH2 0x8E JUMPI DUP1 PUSH4 0xE1A5C444 EQ PUSH2 0xA1 JUMPI JUMPDEST PUSH1 0x0 DUP1 REVERT JUMPDEST PUSH2 0x64 PUSH2 0x5F CALLDATASIZE PUSH1 0x4 PUSH2 0x310 JUMP JUMPDEST PUSH2 0xD7 JUMP JUMPDEST STOP JUMPDEST PUSH2 0x79 PUSH2 0x74 CALLDATASIZE PUSH1 0x4 PUSH2 0x332 JUMP JUMPDEST PUSH2 0x17B JUMP JUMPDEST PUSH1 0x40 MLOAD SWAP1 ISZERO ISZERO DUP2 MSTORE PUSH1 0x20 ADD JUMPDEST PUSH1 0x40 MLOAD DUP1 SWAP2 SUB SWAP1 RETURN JUMPDEST PUSH2 0x64 PUSH2 0x9C CALLDATASIZE PUSH1 0x4 PUSH2 0x365 JUMP JUMPDEST PUSH2 0x1B9 JUMP JUMPDEST PUSH2 0xC9 PUSH2 0xAF CALLDATASIZE PUSH1 0x4 PUSH2 0x332 JUMP JUMPDEST PUSH1 0x0 PUSH1 0x20 DUP2 DUP2 MSTORE SWAP3 DUP2 MSTORE PUSH1 0x40 DUP1 DUP3 KECCAK256 SWAP1 SWAP4 MSTORE SWAP1 DUP2 MSTORE KECCAK256 SLOAD DUP2 JUMP JUMPDEST PUSH1 0x40 MLOAD SWAP1 DUP2 MSTORE PUSH1 0x20 ADD PUSH2 0x85 JUMP JUMPDEST PUSH1 0x1 PUSH1 0x1 PUSH1 0xA0 SHL SUB DUP2 AND PUSH1 0x0 SWAP1 DUP2 MSTORE PUSH1 0x20 DUP2 DUP2 MSTORE PUSH1 0x40 DUP1 DUP4 KECCAK256 CALLER DUP5 MSTORE SWAP1 SWAP2 MSTORE SWAP1 KECCAK256 SLOAD TIMESTAMP GT ISZERO PUSH2 0x158 JUMPI PUSH1 0x40 MLOAD PUSH3 0x461BCD PUSH1 0xE5 SHL DUP2 MSTORE PUSH1 0x20 PUSH1 0x4 DUP3 ADD MSTORE PUSH1 0x22 PUSH1 0x24 DUP3 ADD MSTORE PUSH32 0x61636365737320776173206E6F7420676976656E206F72206973206578706972 PUSH1 0x44 DUP3 ADD MSTORE PUSH2 0x1959 PUSH1 0xF2 SHL PUSH1 0x64 DUP3 ADD MSTORE PUSH1 0x84 ADD JUMPDEST PUSH1 0x40 MLOAD DUP1 SWAP2 SUB SWAP1 REVERT JUMPDEST PUSH1 0x1 PUSH1 0x1 PUSH1 0xA0 SHL SUB AND PUSH1 0x0 SWAP1 DUP2 MSTORE PUSH1 0x20 DUP2 DUP2 MSTORE PUSH1 0x40 DUP1 DUP4 KECCAK256 CALLER DUP5 MSTORE SWAP1 SWAP2 MSTORE DUP2 KECCAK256 SSTORE JUMP JUMPDEST PUSH1 0x1 PUSH1 0x1 PUSH1 0xA0 SHL SUB DUP1 DUP4 AND PUSH1 0x0 SWAP1 DUP2 MSTORE PUSH1 0x20 DUP2 DUP2 MSTORE PUSH1 0x40 DUP1 DUP4 KECCAK256 SWAP4 DUP6 AND DUP4 MSTORE SWAP3 SWAP1 MSTORE SWAP1 DUP2 KECCAK256 SLOAD TIMESTAMP GT PUSH2 0x1AF JUMPI POP PUSH1 0x1 PUSH2 0x1B3 JUMP JUMPDEST POP PUSH1 0x0 JUMPDEST SWAP3 SWAP2 POP POP JUMP JUMPDEST PUSH1 0x1 DUP2 LT ISZERO PUSH2 0x20A JUMPI PUSH1 0x40 MLOAD PUSH3 0x461BCD PUSH1 0xE5 SHL DUP2 MSTORE PUSH1 0x20 PUSH1 0x4 DUP3 ADD DUP2 SWAP1 MSTORE PUSH1 0x24 DUP3 ADD MSTORE PUSH32 0x53686F7274657374206163636573732074696D652069732031207365636F6E64 PUSH1 0x44 DUP3 ADD MSTORE PUSH1 0x64 ADD PUSH2 0x14F JUMP JUMPDEST PUSH2 0xE10 DUP2 GT ISZERO PUSH2 0x25C JUMPI PUSH1 0x40 MLOAD PUSH3 0x461BCD PUSH1 0xE5 SHL DUP2 MSTORE PUSH1 0x20 PUSH1 0x4 DUP3 ADD MSTORE PUSH1 0x1D PUSH1 0x24 DUP3 ADD MSTORE PUSH32 0x4C6F6E67657374206163636573732074696D65206973203120686F7572000000 PUSH1 0x44 DUP3 ADD MSTORE PUSH1 0x64 ADD PUSH2 0x14F JUMP JUMPDEST CALLER PUSH1 0x1 PUSH1 0x1 PUSH1 0xA0 SHL SUB DUP4 AND SUB PUSH2 0x2BE JUMPI PUSH1 0x40 MLOAD PUSH3 0x461BCD PUSH1 0xE5 SHL DUP2 MSTORE PUSH1 0x20 PUSH1 0x4 DUP3 ADD MSTORE PUSH1 0x21 PUSH1 0x24 DUP3 ADD MSTORE PUSH32 0x596F752063616E277420676976652061636365737320746F20796F757273656C PUSH1 0x44 DUP3 ADD MSTORE PUSH1 0x33 PUSH1 0xF9 SHL PUSH1 0x64 DUP3 ADD MSTORE PUSH1 0x84 ADD PUSH2 0x14F JUMP JUMPDEST PUSH2 0x2C8 DUP2 TIMESTAMP PUSH2 0x38F JUMP JUMPDEST CALLER PUSH1 0x0 SWAP1 DUP2 MSTORE PUSH1 0x20 DUP2 DUP2 MSTORE PUSH1 0x40 DUP1 DUP4 KECCAK256 PUSH1 0x1 PUSH1 0x1 PUSH1 0xA0 SHL SUB SWAP7 SWAP1 SWAP7 AND DUP4 MSTORE SWAP5 SWAP1 MSTORE SWAP3 SWAP1 SWAP3 KECCAK256 SWAP2 SWAP1 SWAP2 SSTORE POP JUMP JUMPDEST DUP1 CALLDATALOAD PUSH1 0x1 PUSH1 0x1 PUSH1 0xA0 SHL SUB DUP2 AND DUP2 EQ PUSH2 0x30B JUMPI PUSH1 0x0 DUP1 REVERT JUMPDEST SWAP2 SWAP1 POP JUMP JUMPDEST PUSH1 0x0 PUSH1 0x20 DUP3 DUP5 SUB SLT ISZERO PUSH2 0x322 JUMPI PUSH1 0x0 DUP1 REVERT JUMPDEST PUSH2 0x32B DUP3 PUSH2 0x2F4 JUMP JUMPDEST SWAP4 SWAP3 POP POP POP JUMP JUMPDEST PUSH1 0x0 DUP1 PUSH1 0x40 DUP4 DUP6 SUB SLT ISZERO PUSH2 0x345 JUMPI PUSH1 0x0 DUP1 REVERT JUMPDEST PUSH2 0x34E DUP4 PUSH2 0x2F4 JUMP JUMPDEST SWAP2 POP PUSH2 0x35C PUSH1 0x20 DUP5 ADD PUSH2 0x2F4 JUMP JUMPDEST SWAP1 POP SWAP3 POP SWAP3 SWAP1 POP JUMP JUMPDEST PUSH1 0x0 DUP1 PUSH1 0x40 DUP4 DUP6 SUB SLT ISZERO PUSH2 0x378 JUMPI PUSH1 0x0 DUP1 REVERT JUMPDEST PUSH2 0x381 DUP4 PUSH2 0x2F4 JUMP JUMPDEST SWAP5 PUSH1 0x20 SWAP4 SWAP1 SWAP4 ADD CALLDATALOAD SWAP4 POP POP POP JUMP JUMPDEST PUSH1 0x0 DUP3 NOT DUP3 GT ISZERO PUSH2 0x3B0 JUMPI PUSH4 0x4E487B71 PUSH1 0xE0 SHL PUSH1 0x0 MSTORE PUSH1 0x11 PUSH1 0x4 MSTORE PUSH1 0x24 PUSH1 0x0 REVERT JUMPDEST POP ADD SWAP1 JUMP INVALID LOG2 PUSH5 0x6970667358 0x22 SLT KECCAK256 SELFDESTRUCT DUP12 LOG4 0xD3 PUSH21 0x98AC382A2817EED45A41A1CD35BFAB25C567BB8FA5 DUP8 SWAP3 0xCE 0x4C LOG0 PUSH12 0x64736F6C634300080F003300 ","sha1":"b1d823102a3850a8dfa358de10a05e682d70fb2f","source":"// SPDX-License-Identifier: MIT\npragma solidity >=0.1.2;\n\ncontract PasswordlessAuthentication {\n    mapping(address => mapping(address => uint256)) public givenAccessUntill;\n\n    function giveAccess(address application, uint256 accessValidTime) public {\n        require(accessValidTime >= 1, \"Shortest access time is 1 second\");\n        require(accessValidTime <= 3600, \"Longest access time is 1 hour\");\n        require(application != msg.sender, \"You can't give access to yourself\");\n        givenAccessUntill[msg.sender][application] =\n            block.timestamp +\n            accessValidTime;\n    }\n\n    function checkAccess(address user, address application)\n        public\n        view\n        returns (bool)\n    {\n        if (givenAccessUntill[user][application] >= block.timestamp) {\n            return true;\n        } else {\n            return false;\n        }\n    }\n\n    function receiveAccess(address user) public {\n        require(\n            givenAccessUntill[user][msg.sender] >= block.timestamp,\n            \"access was not given or is expired\"\n        );\n        givenAccessUntill[user][msg.sender] = 0;\n    }\n}\n","sourcePath":"contracts/PasswordlessAuthentication.sol","type":"contract","deployment":{"address":"0x7000617c27CB293842864A162cd1AAd2C18Fc470","chainid":"5","blockHeight":7283524}}