{"abi":[{"inputs":[],"stateMutability":"nonpayable","type":"constructor","name":"constructor"},{"anonymous":false,"inputs":[{"indexed":false,"internalType":"address","name":"user","type":"address"},{"indexed":false,"internalType":"uint256","name":"timestamp","type":"uint256"},{"indexed":false,"internalType":"string","name":"reason","type":"string"}],"name":"OtpValidationFailed","type":"event"},{"inputs":[{"internalType":"address","name":"for_user","type":"address"}],"name":"generateOtp","outputs":[],"stateMutability":"nonpayable","type":"function"},{"inputs":[],"name":"getNewOtp","outputs":[{"internalType":"uint256","name":"","type":"uint256"}],"stateMutability":"view","type":"function"},{"inputs":[],"name":"getOtp","outputs":[{"internalType":"uint256","name":"","type":"uint256"}],"stateMutability":"view","type":"function"},{"inputs":[{"internalType":"address","name":"","type":"address"}],"name":"otp","outputs":[{"internalType":"uint256","name":"password","type":"uint256"},{"internalType":"uint256","name":"generatedAt","type":"uint256"}],"stateMutability":"view","type":"function"},{"inputs":[{"internalType":"uint256","name":"password","type":"uint256"},{"internalType":"address","name":"user","type":"address"}],"name":"validatePassword","outputs":[{"internalType":"uint256","name":"","type":"uint256"}],"stateMutability":"view","type":"function"}],"bytecode":"608060405263075bcd1560015534801561001857600080fd5b50600080546001600160c01b0319163363ffffffff60a01b191617600f60a11b1781556102fa90819061004b90396000f3fe608060405234801561001057600080fd5b50600436106100575760003560e01c80631ceb02571461005c57806321ba2fd1146100715780632b822c80146100975780637e9c54a71461009f578063b9020283146100db575b600080fd5b61006f61006a366004610231565b6100f0565b005b61008461007f366004610253565b610147565b6040519081526020015b60405180910390f35b6100846101be565b6100c66100ad366004610231565b6002602052600090815260409020805460019091015482565b6040805192835260208301919091520161008e565b33600090815260026020526040902054610084565b6000546001600160a01b03163314156101445760405180604001604052806101166101be565b8152426020918201526001600160a01b03831660009081526002825260409020825181559101516001909101555b50565b6001600160a01b038116600090815260026020526040812054831461016e575060016101b8565b600080546001600160a01b0384168252600260205260409091206001015442916101a691600160a01b90910463ffffffff1690610295565b10156101b4575060026101b8565b5060005b92915050565b60006101cb6001436102ad565b6040805191406020830152429082015233606090811b6bffffffffffffffffffffffff1916908201526074016040516020818303038152906040528051906020012060001c905090565b80356001600160a01b038116811461022c57600080fd5b919050565b60006020828403121561024357600080fd5b61024c82610215565b9392505050565b6000806040838503121561026657600080fd5b8235915061027660208401610215565b90509250929050565b634e487b7160e01b600052601160045260246000fd5b600082198211156102a8576102a861027f565b500190565b6000828210156102bf576102bf61027f565b50039056fea264697066735822122048b03a14b3a521ccbd46d7b26c32320a9a99e9d9285d9c237be74f03ddcb3e5f64736f6c634300080c0033","bytecodeSha1":"f603ced9aed8b676ef6e21e95593cfc5ccd6b1de","compiler":{"evm_version":"istanbul","optimizer":{"enabled":true,"runs":200},"version":"0.8.12+commit.f00d7308"},"contractName":"AuthenticatorProvider","language":"Solidity","natspec":{"kind":"dev","methods":{},"version":1},"opcodes":"PUSH1 0x80 PUSH1 0x40 MSTORE CALLVALUE DUP1 ISZERO PUSH2 0x10 JUMPI PUSH1 0x0 DUP1 REVERT JUMPDEST POP PUSH1 0x4 CALLDATASIZE LT PUSH2 0x57 JUMPI PUSH1 0x0 CALLDATALOAD PUSH1 0xE0 SHR DUP1 PUSH4 0x1CEB0257 EQ PUSH2 0x5C JUMPI DUP1 PUSH4 0x21BA2FD1 EQ PUSH2 0x71 JUMPI DUP1 PUSH4 0x2B822C80 EQ PUSH2 0x97 JUMPI DUP1 PUSH4 0x7E9C54A7 EQ PUSH2 0x9F JUMPI DUP1 PUSH4 0xB9020283 EQ PUSH2 0xDB JUMPI JUMPDEST PUSH1 0x0 DUP1 REVERT JUMPDEST PUSH2 0x6F PUSH2 0x6A CALLDATASIZE PUSH1 0x4 PUSH2 0x231 JUMP JUMPDEST PUSH2 0xF0 JUMP JUMPDEST STOP JUMPDEST PUSH2 0x84 PUSH2 0x7F CALLDATASIZE PUSH1 0x4 PUSH2 0x253 JUMP JUMPDEST PUSH2 0x147 JUMP JUMPDEST PUSH1 0x40 MLOAD SWAP1 DUP2 MSTORE PUSH1 0x20 ADD JUMPDEST PUSH1 0x40 MLOAD DUP1 SWAP2 SUB SWAP1 RETURN JUMPDEST PUSH2 0x84 PUSH2 0x1BE JUMP JUMPDEST PUSH2 0xC6 PUSH2 0xAD CALLDATASIZE PUSH1 0x4 PUSH2 0x231 JUMP JUMPDEST PUSH1 0x2 PUSH1 0x20 MSTORE PUSH1 0x0 SWAP1 DUP2 MSTORE PUSH1 0x40 SWAP1 KECCAK256 DUP1 SLOAD PUSH1 0x1 SWAP1 SWAP2 ADD SLOAD DUP3 JUMP JUMPDEST PUSH1 0x40 DUP1 MLOAD SWAP3 DUP4 MSTORE PUSH1 0x20 DUP4 ADD SWAP2 SWAP1 SWAP2 MSTORE ADD PUSH2 0x8E JUMP JUMPDEST CALLER PUSH1 0x0 SWAP1 DUP2 MSTORE PUSH1 0x2 PUSH1 0x20 MSTORE PUSH1 0x40 SWAP1 KECCAK256 SLOAD PUSH2 0x84 JUMP JUMPDEST PUSH1 0x0 SLOAD PUSH1 0x1 PUSH1 0x1 PUSH1 0xA0 SHL SUB AND CALLER EQ ISZERO PUSH2 0x144 JUMPI PUSH1 0x40 MLOAD DUP1 PUSH1 0x40 ADD PUSH1 0x40 MSTORE DUP1 PUSH2 0x116 PUSH2 0x1BE JUMP JUMPDEST DUP2 MSTORE TIMESTAMP PUSH1 0x20 SWAP2 DUP3 ADD MSTORE PUSH1 0x1 PUSH1 0x1 PUSH1 0xA0 SHL SUB DUP4 AND PUSH1 0x0 SWAP1 DUP2 MSTORE PUSH1 0x2 DUP3 MSTORE PUSH1 0x40 SWAP1 KECCAK256 DUP3 MLOAD DUP2 SSTORE SWAP2 ADD MLOAD PUSH1 0x1 SWAP1 SWAP2 ADD SSTORE JUMPDEST POP JUMP JUMPDEST PUSH1 0x1 PUSH1 0x1 PUSH1 0xA0 SHL SUB DUP2 AND PUSH1 0x0 SWAP1 DUP2 MSTORE PUSH1 0x2 PUSH1 0x20 MSTORE PUSH1 0x40 DUP2 KECCAK256 SLOAD DUP4 EQ PUSH2 0x16E JUMPI POP PUSH1 0x1 PUSH2 0x1B8 JUMP JUMPDEST PUSH1 0x0 DUP1 SLOAD PUSH1 0x1 PUSH1 0x1 PUSH1 0xA0 SHL SUB DUP5 AND DUP3 MSTORE PUSH1 0x2 PUSH1 0x20 MSTORE PUSH1 0x40 SWAP1 SWAP2 KECCAK256 PUSH1 0x1 ADD SLOAD TIMESTAMP SWAP2 PUSH2 0x1A6 SWAP2 PUSH1 0x1 PUSH1 0xA0 SHL SWAP1 SWAP2 DIV PUSH4 0xFFFFFFFF AND SWAP1 PUSH2 0x295 JUMP JUMPDEST LT ISZERO PUSH2 0x1B4 JUMPI POP PUSH1 0x2 PUSH2 0x1B8 JUMP JUMPDEST POP PUSH1 0x0 JUMPDEST SWAP3 SWAP2 POP POP JUMP JUMPDEST PUSH1 0x0 PUSH2 0x1CB PUSH1 0x1 NUMBER PUSH2 0x2AD JUMP JUMPDEST PUSH1 0x40 DUP1 MLOAD SWAP2 BLOCKHASH PUSH1 0x20 DUP4 ADD MSTORE TIMESTAMP SWAP1 DUP3 ADD MSTORE CALLER PUSH1 0x60 SWAP1 DUP2 SHL PUSH12 0xFFFFFFFFFFFFFFFFFFFFFFFF NOT AND SWAP1 DUP3 ADD MSTORE PUSH1 0x74 ADD PUSH1 0x40 MLOAD PUSH1 0x20 DUP2 DUP4 SUB SUB DUP2 MSTORE SWAP1 PUSH1 0x40 MSTORE DUP1 MLOAD SWAP1 PUSH1 0x20 ADD KECCAK256 PUSH1 0x0 SHR SWAP1 POP SWAP1 JUMP JUMPDEST DUP1 CALLDATALOAD PUSH1 0x1 PUSH1 0x1 PUSH1 0xA0 SHL SUB DUP2 AND DUP2 EQ PUSH2 0x22C JUMPI PUSH1 0x0 DUP1 REVERT JUMPDEST SWAP2 SWAP1 POP JUMP JUMPDEST PUSH1 0x0 PUSH1 0x20 DUP3 DUP5 SUB SLT ISZERO PUSH2 0x243 JUMPI PUSH1 0x0 DUP1 REVERT JUMPDEST PUSH2 0x24C DUP3 PUSH2 0x215 JUMP JUMPDEST SWAP4 SWAP3 POP POP POP JUMP JUMPDEST PUSH1 0x0 DUP1 PUSH1 0x40 DUP4 DUP6 SUB SLT ISZERO PUSH2 0x266 JUMPI PUSH1 0x0 DUP1 REVERT JUMPDEST DUP3 CALLDATALOAD SWAP2 POP PUSH2 0x276 PUSH1 0x20 DUP5 ADD PUSH2 0x215 JUMP JUMPDEST SWAP1 POP SWAP3 POP SWAP3 SWAP1 POP JUMP JUMPDEST PUSH4 0x4E487B71 PUSH1 0xE0 SHL PUSH1 0x0 MSTORE PUSH1 0x11 PUSH1 0x4 MSTORE PUSH1 0x24 PUSH1 0x0 REVERT JUMPDEST PUSH1 0x0 DUP3 NOT DUP3 GT ISZERO PUSH2 0x2A8 JUMPI PUSH2 0x2A8 PUSH2 0x27F JUMP JUMPDEST POP ADD SWAP1 JUMP JUMPDEST PUSH1 0x0 DUP3 DUP3 LT ISZERO PUSH2 0x2BF JUMPI PUSH2 0x2BF PUSH2 0x27F JUMP JUMPDEST POP SUB SWAP1 JUMP INVALID LOG2 PUSH5 0x6970667358 0x22 SLT KECCAK256 BASEFEE 0xB0 GASPRICE EQ 0xB3 0xA5 0x21 0xCC 0xBD CHAINID 0xD7 0xB2 PUSH13 0x32320A9A99E9D9285D9C237BE7 0x4F SUB 0xDD 0xCB RETURNDATACOPY 0x5F PUSH5 0x736F6C6343 STOP ADDMOD 0xC STOP CALLER ","sha1":"7f502c6d46d0caa6f2186469591037a1030833e8","source":"// SPDX-License-Identifier: MIT\n\npragma solidity ^0.8.0;\n\ncontract AuthenticatorProvider {\n    address owner;\n    uint32 otpValidFor;\n\n    uint256 passwordSeed = 123456789;\n\n    struct OneTimePassword {\n        uint256 password;\n        uint256 generatedAt;\n    }\n\n    mapping(address => OneTimePassword) public otp;\n\n    event OtpValidationFailed(address user, uint256 timestamp, string reason);\n\n    constructor() {\n        owner = msg.sender;\n        otpValidFor = 30;\n    }\n\n    // internal\n    // should generate random string of characters - one time password\n    function getNewOtp() public view returns (uint256) {\n        // not actually random, just for testing\n        return\n            uint256(\n                keccak256(\n                    abi.encodePacked(\n                        blockhash(block.number - 1),\n                        block.timestamp,\n                        msg.sender\n                    )\n                )\n            );\n    }\n\n    // only owner\n    // authenticator service would call this function to generate one time passowrd for a given user\n    function generateOtp(address for_user) public {\n        if (msg.sender == owner) {\n            otp[for_user] = OneTimePassword(getNewOtp(), block.timestamp);\n        }\n    }\n\n    // user would call this function to retrieve one time password\n    function getOtp() public view returns (uint256) {\n        return otp[msg.sender].password;\n    }\n\n    // only owner\n    // once users enters otp, service would call this function to validate it\n    // returns 0 => password valid; 1 => incorrect password, 2 => password expired\n    // todo: handle situation when password wasnt generated before (there is no mapping for user in otp)\n    function validatePassword(uint256 password, address user)\n        public\n        view\n        returns (uint256)\n    {\n        if (otp[user].password != password) {\n            return 1;\n        }\n        if ((otp[user].generatedAt + otpValidFor) < block.timestamp) {\n            return 2;\n        }\n        return 0;\n    }\n}\n","sourcePath":"contracts/AuthenticatorProvider.sol","type":"contract","deployment":{"address":"0x1AC54a5247AC82233F7748027Cb455fb44e99900","chainid":"4","blockHeight":10423937}}