{"abi":[{"inputs":[{"internalType":"address","name":"user","type":"address"},{"internalType":"address","name":"website","type":"address"}],"name":"checkAccess","outputs":[{"internalType":"bool","name":"","type":"bool"}],"stateMutability":"view","type":"function"},{"inputs":[{"internalType":"address","name":"website","type":"address"},{"internalType":"uint256","name":"accessValidTime","type":"uint256"}],"name":"giveAccess","outputs":[],"stateMutability":"nonpayable","type":"function"},{"inputs":[{"internalType":"address","name":"","type":"address"},{"internalType":"address","name":"","type":"address"}],"name":"givenAccessUntill","outputs":[{"internalType":"uint256","name":"","type":"uint256"}],"stateMutability":"view","type":"function"},{"inputs":[{"internalType":"address","name":"user","type":"address"}],"name":"receiveAccess","outputs":[{"internalType":"bool","name":"","type":"bool"}],"stateMutability":"nonpayable","type":"function"}],"bytecode":"608060405234801561001057600080fd5b50610299806100206000396000f3fe608060405234801561001057600080fd5b506004361061004c5760003560e01c806350c05f0c1461005157806362e1f74514610079578063781eeb801461008c578063e1a5c444146100a1575b600080fd5b61006461005f3660046101be565b6100d7565b60405190151581526020015b60405180910390f35b6100646100873660046101e0565b61012e565b61009f61009a366004610213565b61016c565b005b6100c96100af3660046101e0565b600060208181529281526040808220909352908152205481565b604051908152602001610070565b6001600160a01b038116600090815260208181526040808320338452909152812054421161012657506001600160a01b0316600090815260208181526040808320338452909152812055600190565b506000919050565b6001600160a01b03808316600090815260208181526040808320938516835292905290812054421161016257506001610166565b5060005b92915050565b610176814261023d565b336000908152602081815260408083206001600160a01b03969096168352949052929092209190915550565b80356001600160a01b03811681146101b957600080fd5b919050565b6000602082840312156101d057600080fd5b6101d9826101a2565b9392505050565b600080604083850312156101f357600080fd5b6101fc836101a2565b915061020a602084016101a2565b90509250929050565b6000806040838503121561022657600080fd5b61022f836101a2565b946020939093013593505050565b6000821982111561025e57634e487b7160e01b600052601160045260246000fd5b50019056fea2646970667358221220f7d2bab4f2aa21f0f28535830bc5cac3215fedb548eb53800d7228c4a6c9a39c64736f6c634300080c0033","bytecodeSha1":"7e204ce21ac3af82627613e5e9adcf529e37f4f5","compiler":{"evm_version":"istanbul","optimizer":{"enabled":true,"runs":200},"version":"0.8.12+commit.f00d7308"},"contractName":"PasswordlessAuthentication","language":"Solidity","natspec":{"kind":"dev","methods":{},"version":1},"opcodes":"PUSH1 0x80 PUSH1 0x40 MSTORE CALLVALUE DUP1 ISZERO PUSH2 0x10 JUMPI PUSH1 0x0 DUP1 REVERT JUMPDEST POP PUSH1 0x4 CALLDATASIZE LT PUSH2 0x4C JUMPI PUSH1 0x0 CALLDATALOAD PUSH1 0xE0 SHR DUP1 PUSH4 0x50C05F0C EQ PUSH2 0x51 JUMPI DUP1 PUSH4 0x62E1F745 EQ PUSH2 0x79 JUMPI DUP1 PUSH4 0x781EEB80 EQ PUSH2 0x8C JUMPI DUP1 PUSH4 0xE1A5C444 EQ PUSH2 0xA1 JUMPI JUMPDEST PUSH1 0x0 DUP1 REVERT JUMPDEST PUSH2 0x64 PUSH2 0x5F CALLDATASIZE PUSH1 0x4 PUSH2 0x1BE JUMP JUMPDEST PUSH2 0xD7 JUMP JUMPDEST PUSH1 0x40 MLOAD SWAP1 ISZERO ISZERO DUP2 MSTORE PUSH1 0x20 ADD JUMPDEST PUSH1 0x40 MLOAD DUP1 SWAP2 SUB SWAP1 RETURN JUMPDEST PUSH2 0x64 PUSH2 0x87 CALLDATASIZE PUSH1 0x4 PUSH2 0x1E0 JUMP JUMPDEST PUSH2 0x12E JUMP JUMPDEST PUSH2 0x9F PUSH2 0x9A CALLDATASIZE PUSH1 0x4 PUSH2 0x213 JUMP JUMPDEST PUSH2 0x16C JUMP JUMPDEST STOP JUMPDEST PUSH2 0xC9 PUSH2 0xAF CALLDATASIZE PUSH1 0x4 PUSH2 0x1E0 JUMP JUMPDEST PUSH1 0x0 PUSH1 0x20 DUP2 DUP2 MSTORE SWAP3 DUP2 MSTORE PUSH1 0x40 DUP1 DUP3 KECCAK256 SWAP1 SWAP4 MSTORE SWAP1 DUP2 MSTORE KECCAK256 SLOAD DUP2 JUMP JUMPDEST PUSH1 0x40 MLOAD SWAP1 DUP2 MSTORE PUSH1 0x20 ADD PUSH2 0x70 JUMP JUMPDEST PUSH1 0x1 PUSH1 0x1 PUSH1 0xA0 SHL SUB DUP2 AND PUSH1 0x0 SWAP1 DUP2 MSTORE PUSH1 0x20 DUP2 DUP2 MSTORE PUSH1 0x40 DUP1 DUP4 KECCAK256 CALLER DUP5 MSTORE SWAP1 SWAP2 MSTORE DUP2 KECCAK256 SLOAD TIMESTAMP GT PUSH2 0x126 JUMPI POP PUSH1 0x1 PUSH1 0x1 PUSH1 0xA0 SHL SUB AND PUSH1 0x0 SWAP1 DUP2 MSTORE PUSH1 0x20 DUP2 DUP2 MSTORE PUSH1 0x40 DUP1 DUP4 KECCAK256 CALLER DUP5 MSTORE SWAP1 SWAP2 MSTORE DUP2 KECCAK256 SSTORE PUSH1 0x1 SWAP1 JUMP JUMPDEST POP PUSH1 0x0 SWAP2 SWAP1 POP JUMP JUMPDEST PUSH1 0x1 PUSH1 0x1 PUSH1 0xA0 SHL SUB DUP1 DUP4 AND PUSH1 0x0 SWAP1 DUP2 MSTORE PUSH1 0x20 DUP2 DUP2 MSTORE PUSH1 0x40 DUP1 DUP4 KECCAK256 SWAP4 DUP6 AND DUP4 MSTORE SWAP3 SWAP1 MSTORE SWAP1 DUP2 KECCAK256 SLOAD TIMESTAMP GT PUSH2 0x162 JUMPI POP PUSH1 0x1 PUSH2 0x166 JUMP JUMPDEST POP PUSH1 0x0 JUMPDEST SWAP3 SWAP2 POP POP JUMP JUMPDEST PUSH2 0x176 DUP2 TIMESTAMP PUSH2 0x23D JUMP JUMPDEST CALLER PUSH1 0x0 SWAP1 DUP2 MSTORE PUSH1 0x20 DUP2 DUP2 MSTORE PUSH1 0x40 DUP1 DUP4 KECCAK256 PUSH1 0x1 PUSH1 0x1 PUSH1 0xA0 SHL SUB SWAP7 SWAP1 SWAP7 AND DUP4 MSTORE SWAP5 SWAP1 MSTORE SWAP3 SWAP1 SWAP3 KECCAK256 SWAP2 SWAP1 SWAP2 SSTORE POP JUMP JUMPDEST DUP1 CALLDATALOAD PUSH1 0x1 PUSH1 0x1 PUSH1 0xA0 SHL SUB DUP2 AND DUP2 EQ PUSH2 0x1B9 JUMPI PUSH1 0x0 DUP1 REVERT JUMPDEST SWAP2 SWAP1 POP JUMP JUMPDEST PUSH1 0x0 PUSH1 0x20 DUP3 DUP5 SUB SLT ISZERO PUSH2 0x1D0 JUMPI PUSH1 0x0 DUP1 REVERT JUMPDEST PUSH2 0x1D9 DUP3 PUSH2 0x1A2 JUMP JUMPDEST SWAP4 SWAP3 POP POP POP JUMP JUMPDEST PUSH1 0x0 DUP1 PUSH1 0x40 DUP4 DUP6 SUB SLT ISZERO PUSH2 0x1F3 JUMPI PUSH1 0x0 DUP1 REVERT JUMPDEST PUSH2 0x1FC DUP4 PUSH2 0x1A2 JUMP JUMPDEST SWAP2 POP PUSH2 0x20A PUSH1 0x20 DUP5 ADD PUSH2 0x1A2 JUMP JUMPDEST SWAP1 POP SWAP3 POP SWAP3 SWAP1 POP JUMP JUMPDEST PUSH1 0x0 DUP1 PUSH1 0x40 DUP4 DUP6 SUB SLT ISZERO PUSH2 0x226 JUMPI PUSH1 0x0 DUP1 REVERT JUMPDEST PUSH2 0x22F DUP4 PUSH2 0x1A2 JUMP JUMPDEST SWAP5 PUSH1 0x20 SWAP4 SWAP1 SWAP4 ADD CALLDATALOAD SWAP4 POP POP POP JUMP JUMPDEST PUSH1 0x0 DUP3 NOT DUP3 GT ISZERO PUSH2 0x25E JUMPI PUSH4 0x4E487B71 PUSH1 0xE0 SHL PUSH1 0x0 MSTORE PUSH1 0x11 PUSH1 0x4 MSTORE PUSH1 0x24 PUSH1 0x0 REVERT JUMPDEST POP ADD SWAP1 JUMP INVALID LOG2 PUSH5 0x6970667358 0x22 SLT KECCAK256 0xF7 0xD2 0xBA 0xB4 CALLCODE 0xAA 0x21 CREATE CALLCODE DUP6 CALLDATALOAD DUP4 SIGNEXTEND 0xC5 0xCA 0xC3 0x21 0x5F 0xED 0xB5 BASEFEE 0xEB MSTORE8 DUP1 0xD PUSH19 0x28C4A6C9A39C64736F6C634300080C00330000 ","sha1":"6c59cc5bb86c1defc41ddaba5bcec90b931b6cbc","source":"// SPDX-License-Identifier: MIT\n\npragma solidity ^0.8.0;\n\ncontract PasswordlessAuthentication {\n    mapping(address => mapping(address => uint256)) public givenAccessUntill;\n\n    function giveAccess(address website, uint256 accessValidTime) public {\n        givenAccessUntill[msg.sender][website] =\n            block.timestamp +\n            accessValidTime;\n    }\n\n    function checkAccess(address user, address website)\n        public\n        view\n        returns (bool)\n    {\n        if (givenAccessUntill[user][website] >= block.timestamp) {\n            return true;\n        }\n        return false;\n    }\n\n    function receiveAccess(address user) public returns (bool) {\n        if (givenAccessUntill[user][msg.sender] >= block.timestamp) {\n            givenAccessUntill[user][msg.sender] = 0;\n            return true;\n        }\n        return false;\n    }\n}\n","sourcePath":"contracts/PasswordlessAuthentication.sol","type":"contract","deployment":{"address":"0x6738fB747C0c20085f6bFd3588bD7f172f39a30F","chainid":"80001","blockHeight":25798932}}