{"abi":[{"inputs":[],"stateMutability":"nonpayable","type":"constructor","name":"constructor"},{"anonymous":false,"inputs":[{"indexed":false,"internalType":"address","name":"user","type":"address"},{"indexed":false,"internalType":"uint256","name":"timestamp","type":"uint256"},{"indexed":false,"internalType":"string","name":"reason","type":"string"}],"name":"OtpValidationFailed","type":"event"},{"inputs":[{"internalType":"address","name":"for_user","type":"address"}],"name":"generateOtp","outputs":[],"stateMutability":"nonpayable","type":"function"},{"inputs":[],"name":"getNewOtp","outputs":[{"internalType":"uint256","name":"","type":"uint256"}],"stateMutability":"pure","type":"function"},{"inputs":[],"name":"getOtp","outputs":[{"internalType":"uint256","name":"","type":"uint256"}],"stateMutability":"view","type":"function"},{"inputs":[{"internalType":"address","name":"","type":"address"}],"name":"otp","outputs":[{"internalType":"uint256","name":"password","type":"uint256"},{"internalType":"uint256","name":"generatedAt","type":"uint256"}],"stateMutability":"view","type":"function"},{"inputs":[{"internalType":"uint256","name":"password","type":"uint256"},{"internalType":"address","name":"user","type":"address"}],"name":"validatePassword","outputs":[{"internalType":"uint256","name":"","type":"uint256"}],"stateMutability":"view","type":"function"}],"bytecode":"608060405234801561001057600080fd5b50600080546001600160c01b0319163363ffffffff60a01b191617600f60a11b17815561028c90819061004390396000f3fe608060405234801561001057600080fd5b50600436106100575760003560e01c80631ceb02571461005c57806321ba2fd1146100715780632b822c80146100975780637e9c54a7146100a1578063b9020283146100dd575b600080fd5b61006f61006a3660046101e2565b6100f2565b005b61008461007f366004610204565b61014d565b6040519081526020015b60405180910390f35b63075bcd15610084565b6100c86100af3660046101e2565b6001602081905260009182526040909120805491015482565b6040805192835260208301919091520161008e565b33600090815260016020526040902054610084565b6000546001600160a01b031633141561014a57604051806040016040528061011b63075bcd1590565b8152426020918201526001600160a01b0383166000908152600180835260409091208351815592909101519101555b50565b6001600160a01b0381166000908152600160205260408120548314610174575060016101c0565b600080546001600160a01b03841682526001602081905260409092209091015442916101ae91600160a01b90910463ffffffff1690610230565b10156101bc575060026101c0565b5060005b92915050565b80356001600160a01b03811681146101dd57600080fd5b919050565b6000602082840312156101f457600080fd5b6101fd826101c6565b9392505050565b6000806040838503121561021757600080fd5b82359150610227602084016101c6565b90509250929050565b6000821982111561025157634e487b7160e01b600052601160045260246000fd5b50019056fea2646970667358221220cea4e6c9d9178d5152022a031ac0204f93bb6eff719f27dd5be47eca27808f0964736f6c634300080c0033","bytecodeSha1":"653fca79131a347ba94c9ef971f65c298441cab1","compiler":{"evm_version":"istanbul","optimizer":{"enabled":true,"runs":200},"version":"0.8.12+commit.f00d7308"},"contractName":"AuthenticatorProvider","language":"Solidity","natspec":{"kind":"dev","methods":{},"version":1},"opcodes":"PUSH1 0x80 PUSH1 0x40 MSTORE CALLVALUE DUP1 ISZERO PUSH2 0x10 JUMPI PUSH1 0x0 DUP1 REVERT JUMPDEST POP PUSH1 0x4 CALLDATASIZE LT PUSH2 0x57 JUMPI PUSH1 0x0 CALLDATALOAD PUSH1 0xE0 SHR DUP1 PUSH4 0x1CEB0257 EQ PUSH2 0x5C JUMPI DUP1 PUSH4 0x21BA2FD1 EQ PUSH2 0x71 JUMPI DUP1 PUSH4 0x2B822C80 EQ PUSH2 0x97 JUMPI DUP1 PUSH4 0x7E9C54A7 EQ PUSH2 0xA1 JUMPI DUP1 PUSH4 0xB9020283 EQ PUSH2 0xDD JUMPI JUMPDEST PUSH1 0x0 DUP1 REVERT JUMPDEST PUSH2 0x6F PUSH2 0x6A CALLDATASIZE PUSH1 0x4 PUSH2 0x1E2 JUMP JUMPDEST PUSH2 0xF2 JUMP JUMPDEST STOP JUMPDEST PUSH2 0x84 PUSH2 0x7F CALLDATASIZE PUSH1 0x4 PUSH2 0x204 JUMP JUMPDEST PUSH2 0x14D JUMP JUMPDEST PUSH1 0x40 MLOAD SWAP1 DUP2 MSTORE PUSH1 0x20 ADD JUMPDEST PUSH1 0x40 MLOAD DUP1 SWAP2 SUB SWAP1 RETURN JUMPDEST PUSH4 0x75BCD15 PUSH2 0x84 JUMP JUMPDEST PUSH2 0xC8 PUSH2 0xAF CALLDATASIZE PUSH1 0x4 PUSH2 0x1E2 JUMP JUMPDEST PUSH1 0x1 PUSH1 0x20 DUP2 SWAP1 MSTORE PUSH1 0x0 SWAP2 DUP3 MSTORE PUSH1 0x40 SWAP1 SWAP2 KECCAK256 DUP1 SLOAD SWAP2 ADD SLOAD DUP3 JUMP JUMPDEST PUSH1 0x40 DUP1 MLOAD SWAP3 DUP4 MSTORE PUSH1 0x20 DUP4 ADD SWAP2 SWAP1 SWAP2 MSTORE ADD PUSH2 0x8E JUMP JUMPDEST CALLER PUSH1 0x0 SWAP1 DUP2 MSTORE PUSH1 0x1 PUSH1 0x20 MSTORE PUSH1 0x40 SWAP1 KECCAK256 SLOAD PUSH2 0x84 JUMP JUMPDEST PUSH1 0x0 SLOAD PUSH1 0x1 PUSH1 0x1 PUSH1 0xA0 SHL SUB AND CALLER EQ ISZERO PUSH2 0x14A JUMPI PUSH1 0x40 MLOAD DUP1 PUSH1 0x40 ADD PUSH1 0x40 MSTORE DUP1 PUSH2 0x11B PUSH4 0x75BCD15 SWAP1 JUMP JUMPDEST DUP2 MSTORE TIMESTAMP PUSH1 0x20 SWAP2 DUP3 ADD MSTORE PUSH1 0x1 PUSH1 0x1 PUSH1 0xA0 SHL SUB DUP4 AND PUSH1 0x0 SWAP1 DUP2 MSTORE PUSH1 0x1 DUP1 DUP4 MSTORE PUSH1 0x40 SWAP1 SWAP2 KECCAK256 DUP4 MLOAD DUP2 SSTORE SWAP3 SWAP1 SWAP2 ADD MLOAD SWAP2 ADD SSTORE JUMPDEST POP JUMP JUMPDEST PUSH1 0x1 PUSH1 0x1 PUSH1 0xA0 SHL SUB DUP2 AND PUSH1 0x0 SWAP1 DUP2 MSTORE PUSH1 0x1 PUSH1 0x20 MSTORE PUSH1 0x40 DUP2 KECCAK256 SLOAD DUP4 EQ PUSH2 0x174 JUMPI POP PUSH1 0x1 PUSH2 0x1C0 JUMP JUMPDEST PUSH1 0x0 DUP1 SLOAD PUSH1 0x1 PUSH1 0x1 PUSH1 0xA0 SHL SUB DUP5 AND DUP3 MSTORE PUSH1 0x1 PUSH1 0x20 DUP2 SWAP1 MSTORE PUSH1 0x40 SWAP1 SWAP3 KECCAK256 SWAP1 SWAP2 ADD SLOAD TIMESTAMP SWAP2 PUSH2 0x1AE SWAP2 PUSH1 0x1 PUSH1 0xA0 SHL SWAP1 SWAP2 DIV PUSH4 0xFFFFFFFF AND SWAP1 PUSH2 0x230 JUMP JUMPDEST LT ISZERO PUSH2 0x1BC JUMPI POP PUSH1 0x2 PUSH2 0x1C0 JUMP JUMPDEST POP PUSH1 0x0 JUMPDEST SWAP3 SWAP2 POP POP JUMP JUMPDEST DUP1 CALLDATALOAD PUSH1 0x1 PUSH1 0x1 PUSH1 0xA0 SHL SUB DUP2 AND DUP2 EQ PUSH2 0x1DD JUMPI PUSH1 0x0 DUP1 REVERT JUMPDEST SWAP2 SWAP1 POP JUMP JUMPDEST PUSH1 0x0 PUSH1 0x20 DUP3 DUP5 SUB SLT ISZERO PUSH2 0x1F4 JUMPI PUSH1 0x0 DUP1 REVERT JUMPDEST PUSH2 0x1FD DUP3 PUSH2 0x1C6 JUMP JUMPDEST SWAP4 SWAP3 POP POP POP JUMP JUMPDEST PUSH1 0x0 DUP1 PUSH1 0x40 DUP4 DUP6 SUB SLT ISZERO PUSH2 0x217 JUMPI PUSH1 0x0 DUP1 REVERT JUMPDEST DUP3 CALLDATALOAD SWAP2 POP PUSH2 0x227 PUSH1 0x20 DUP5 ADD PUSH2 0x1C6 JUMP JUMPDEST SWAP1 POP SWAP3 POP SWAP3 SWAP1 POP JUMP JUMPDEST PUSH1 0x0 DUP3 NOT DUP3 GT ISZERO PUSH2 0x251 JUMPI PUSH4 0x4E487B71 PUSH1 0xE0 SHL PUSH1 0x0 MSTORE PUSH1 0x11 PUSH1 0x4 MSTORE PUSH1 0x24 PUSH1 0x0 REVERT JUMPDEST POP ADD SWAP1 JUMP INVALID LOG2 PUSH5 0x6970667358 0x22 SLT KECCAK256 0xCE LOG4 0xE6 0xC9 0xD9 OR DUP14 MLOAD MSTORE MUL 0x2A SUB BYTE 0xC0 KECCAK256 0x4F SWAP4 0xBB PUSH15 0xFF719F27DD5BE47ECA27808F096473 PUSH16 0x6C634300080C00330000000000000000 ","sha1":"091a9ac2c66d9bc4a07be59bc23b62371ad1d94e","source":"// SPDX-License-Identifier: MIT\n\npragma solidity ^0.8.0;\n\ncontract AuthenticatorProvider {\n    address owner;\n    uint32 otpValidFor;\n\n    struct OneTimePassword {\n        uint256 password;\n        uint256 generatedAt;\n    }\n\n    mapping(address => OneTimePassword) public otp;\n\n    event OtpValidationFailed(address user, uint256 timestamp, string reason);\n\n    constructor() {\n        owner = msg.sender;\n        otpValidFor = 30;\n    }\n\n    // internal\n    // should generate random string of characters - one time password\n    function getNewOtp() public pure returns (uint256) {\n        return 123456789;\n    }\n\n    // only owner\n    // authenticator service would call this function to generate one time passowrd for a given user\n    function generateOtp(address for_user) public {\n        if (msg.sender == owner) {\n            otp[for_user] = OneTimePassword(getNewOtp(), block.timestamp);\n        }\n    }\n\n    // user would call this function to retrieve one time password\n    function getOtp() public view returns (uint256) {\n        return otp[msg.sender].password;\n    }\n\n    // only owner\n    // once users enters otp, service would call this function to validate it\n    // returns 0 => password valid; 1 => incorrect password, 2 => password expired\n    // todo: handle situation when password wasnt generated before (there is no mapping for user in otp)\n    function validatePassword(uint256 password, address user)\n        public\n        view\n        returns (uint256)\n    {\n        if (otp[user].password != password) {\n            return 1;\n        }\n        if ((otp[user].generatedAt + otpValidFor) < block.timestamp) {\n            return 2;\n        }\n        return 0;\n    }\n}\n","sourcePath":"contracts/AuthenticatorProvider.sol","type":"contract","deployment":{"address":"0xaC62a86E7c1F9fEB8106AA616d71b4370d7bC9de","chainid":"80001","blockHeight":25731602}}